{"_format":"hh-sol-artifact-1","contractName":"Donation","sourceName":"contracts/Donation.sol","abi":[{"inputs":[],"stateMutability":"nonpayable","type":"constructor"},{"inputs":[],"name":"getDonations","outputs":[{"components":[{"internalType":"address","name":"donor","type":"address"},{"internalType":"uint256","name":"amount","type":"uint256"}],"internalType":"struct Donation.DonationRecord[]","name":"","type":"tuple[]"}],"stateMutability":"view","type":"function"},{"inputs":[],"name":"getTotalDonations","outputs":[{"internalType":"uint256","name":"","type":"uint256"}],"stateMutability":"view","type":"function"},{"inputs":[],"name":"owner","outputs":[{"internalType":"address","name":"","type":"address"}],"stateMutability":"view","type":"function"},{"inputs":[],"name":"totalDonations","outputs":[{"internalType":"uint256","name":"","type":"uint256"}],"stateMutability":"view","type":"function"},{"stateMutability":"payable","type":"receive"}],"bytecode":"0x6080604052348015600f57600080fd5b50336000806101000a81548173ffffffffffffffffffffffffffffffffffffffff021916908373ffffffffffffffffffffffffffffffffffffffff1602179055506104f68061005f6000396000f3fe6080604052600436106100435760003560e01c8063777c658f146101105780638da5cb5b1461013b578063de2ed89314610166578063e25f8416146101915761010b565b3661010b57600260405180604001604052803373ffffffffffffffffffffffffffffffffffffffff16815260200134815250908060018154018082558091505060019003906000526020600020906002020160009091909190915060008201518160000160006101000a81548173ffffffffffffffffffffffffffffffffffffffff021916908373ffffffffffffffffffffffffffffffffffffffff160217905550602082015181600101555050346001600082825461010391906102e8565b925050819055005b600080fd5b34801561011c57600080fd5b506101256101bc565b604051610132919061032b565b60405180910390f35b34801561014757600080fd5b506101506101c6565b60405161015d9190610387565b60405180910390f35b34801561017257600080fd5b5061017b6101ea565b604051610188919061032b565b60405180910390f35b34801561019d57600080fd5b506101a66101f0565b6040516101b3919061049e565b60405180910390f35b6000600154905090565b60008054906101000a900473ffffffffffffffffffffffffffffffffffffffff1681565b60015481565b60606002805480602002602001604051908101604052809291908181526020016000905b828210156102a657838290600052602060002090600202016040518060400160405290816000820160009054906101000a900473ffffffffffffffffffffffffffffffffffffffff1673ffffffffffffffffffffffffffffffffffffffff1673ffffffffffffffffffffffffffffffffffffffff16815260200160018201548152505081526020019060010190610214565b50505050905090565b6000819050919050565b7f4e487b7100000000000000000000000000000000000000000000000000000000600052601160045260246000fd5b60006102f3826102af565b91506102fe836102af565b9250828201905080821115610316576103156102b9565b5b92915050565b610325816102af565b82525050565b6000602082019050610340600083018461031c565b92915050565b600073ffffffffffffffffffffffffffffffffffffffff82169050919050565b600061037182610346565b9050919050565b61038181610366565b82525050565b600060208201905061039c6000830184610378565b92915050565b600081519050919050565b600082825260208201905092915050565b6000819050602082019050919050565b6103d781610366565b82525050565b6103e6816102af565b82525050565b60408201600082015161040260008501826103ce565b50602082015161041560208501826103dd565b50505050565b600061042783836103ec565b60408301905092915050565b6000602082019050919050565b600061044b826103a2565b61045581856103ad565b9350610460836103be565b8060005b83811015610491578151610478888261041b565b975061048383610433565b925050600181019050610464565b5085935050505092915050565b600060208201905081810360008301526104b88184610440565b90509291505056fea2646970667358221220efed1e458c5222b17292503693c7ef309a38972a11ffe6654b3f9731bee8a62b64736f6c634300081b0033","linkReferences":{},"deployedLinkReferences":{}}